:100000000C943E0E0C94660E0C94660E0C94660EC8
:100010000C94660E0C94660E0C94660E0C94660E90
:100020000C94660E0C94660E0C94A2100C94141191
:100030000C94660E0C94660E0C94660E0C94660E70
:100040000C94660E0C94660E0C94660E0C94660E60
:100050000C94660E0C94660E0C94660E0C9458105C
:100060000C94660E0C94660E0C94660E0C94660E40
:100070000C94660E0C94660E0C94660E0C94660E30
:100080000C94660E0C94660E0C94660E0C94660E20
:100090000C94660E0C94660E0C94660E0C94660E10
:1000A0000C94660E0C94660E0C94660EC513C81361
:1000B000B713BB13C113E913E913E913CC13D0131E
:1000C000D413DA13DE13E913E413080B000202025F
:1000D00001000904000001020200000524001001D3
:1000E0000524010101042402060524060001070578
:1000F000810310004009040100020A000000070506
:1001000002024000000705830240000004030904C6
:1001100012010002EF02014041234180000101026F
:10012000030141726475696E6F204C4C430041724B
:100130006475696E6F2059756E0000000000000044
:1001400000000000000000000000000000000000AF
:10015000000000000000000000000000000000009F
:10016000000000000000000000000000000000008F
:10017000000000000000000000000000000000007F
:1001800000000000000000000380000380000380E6
:1001900000038000038000038000038000038000D0
:1001A00003800001000001000000000000000003C7
:1001B000800003800000000000000000000000003C
:1001C000000000000000000000000000000000002F
:1001D0000000000E70000E70000E7000042000047D
:1001E00020000420000420000000000000000000A7
:1001F00000000000000000000000000000000000FF
:1002000000000000000000000000000000000000EE
:1002100000000000000000000660000660000660AC
:10022000000660000660003FF8003FF8000660002E
:100230000CC0003FF8003FF8000CC0000CC0000CE0
:10024000C0000CC0000CC000000000000000000056
:10025000000000000000000000000000000180001D
:1002600001800007B0000FF0001870001870001C2B
:1002700000000F800007E00000F0001830001C3084
:10028000001C70001FE0001BC00001800001800006
:10029000018000018000000000000000000000005C
:1002A00000000000000000000780000FC0001CE0FC
:1002B000001860001860001CE0000FF80007E00064
:1002C0001FF0000738000618000618000738000362
:1002D000F00001E00000000000000000000000004D
:1002E000000000000000000000000000000000000E
:1002F00000000000000003F00007F0000C60000C9C
:1003000000000C00000600000700000F9C001DFC10
:100310000018F0001870000FFC0007DC000000005F
:1003200000000000000000000000000000000000CD
:1003300000000000000000000000000380000380B7
:100340000003800001000001000001000001000026
:10035000000000000000000000000000000000009D
:10036000000000000000000000000000000000008D
:10037000000000000000000000000000000000007D
:1003800000180000380000700000F00000E00000DD
:10039000E00001C00001C00001C00001C00001C0B8
:1003A0000001C00000E00000E000007000007000EC
:1003B00000380000180000000000000000000000ED
:1003C00000000000000000001800001C00000E00EB
:1003D000000E0000070000070000038000038000FB
:1003E00003800003800003800003800007000007F3
:1003F00000000F00000E00001C00001800000000AC
:1004000000000000000000000000000000000000EC
:100410000180000180000180001DB8001FF8000766
:10042000E00003C00003C00006600006600000009A
:1004300000000000000000000000000000000000BC
:1004400000000000000000000000000000000000AC
:10045000000000000000000000000000000001801B
:10046000000180000180000180000180003FFC004D
:100470003FFC00018000018000018000018000013C
:1004800080000000000000000000000000000000EC
:10049000000000000000000000000000000000005C
:1004A000000000000000000000000000000000004C
:1004B000000000000000000000000000000000003C
:1004C0000000000000E00000C00001C0000180004A
:1004D0000180000300000300000000000000000095
:1004E000000000000000000000000000000000000C
:1004F000000000000000000000000000001FF800E5
:100500001FF80000000000000000000000000000D4
:1005100000000000000000000000000000000000DB
:1005200000000000000000000000000000000000CB
:1005300000000000000000000000000000000000BB
:1005400000000000000000000000000000000000AB
:100550000000000003C00003C00003C00000000052
:10056000000000000000000000000000000000008B
:100570000000001800001800003800003000007073
:100580000000600000600000C00000C000018000AA
:100590000180000300000300000600000600000EBA
:1005A00000000C00001C00001800001800000000F3
:1005B000000000000000000000000000000000003B
:1005C00003C00007E0000C30000C300018180018C1
:1005D0001800181800181800181800181800181813
:1005E000000C30000C300007E00003C000000000E9
:1005F00000000000000000000000000000000000FB
:1006000000000000000000000080000780001F8044
:10061000001D800001800001800001800001800039
:100620000180000180000180000180000180001F26
:10063000F8001FF8000000000000000000000000AB
:1006400000000000000000000000000000000000AA
:1006500007C0001FF00038300030180030180000CC
:10066000180000300000600001C000038000060098
:10067000000C00001800003FF8003FF800000000E8
:10068000000000000000000000000000000000006A
:10069000000000000000000003C0000FE0000C702C
:1006A0000000300000300000600003C00003E000E4
:1006B0000070000018000018000018001838001F13
:1006C000F0000FC00000000000000000000000006B
:1006D000000000000000000000000000000000001A
:1006E00000E00001E00001E0000360000660000699
:1006F00060000C60000C60001860003060003FF883
:10070000003FF80000600003F80003F8000000005C
:1007100000000000000000000000000000000000D9
:1007200000000000000000001FF0001FF000180093
:10073000001800001800001BC0001FF0001C300053
:100740000018000018000018000018003030003FAA
:10075000F0000FC0000000000000000000000000DA
:100760000000000000000000000000000000000089
:1007700000F80003F8000700000E00000C0000184D
:1007800000001BC0001FF0001C30001818001818D3
:10079000001818000C38000FF00003E00000000003
:1007A0000000000000000000000000000000000049
:1007B00000000000000000001FF8001FF8001818DB
:1007C00000183800003000003000007000006000A9
:1007D00000600000E00000C00000C00001C0000197
:1007E0008000018000000000000000000000000008
:1007F00000000000000000000000000000000000F9
:1008000007E0000FF0001C38001818001818000C42
:10081000300007E00007E0000C300018180018183E
:10082000001818001C38000FF00007E0000000005E
:1008300000000000000000000000000000000000B8
:10084000000000000000000007C0000FF0001C3096
:10085000001818001818001818000C38000FF800BD
:1008600003D80000180000300000700000E0001FF6
:10087000C0001F0000000000000000000000000099
:100880000000000000000000000000000000000068
:1008900000000000000000000000000003C0000392
:1008A000C00003C0000000000000000000000000C5
:1008B0000000000003C00003C00003C000000000EF
:1008C0000000000000000000000000000000000028
:1008D0000000000000000000000000000000000018
:1008E0000000000000F00000F00000F00000000038
:1008F00000000000000000000000E00001C0000156
:1009000080000180000300000200000000000000E1
:1009100000000000000000000000000000000000D7
:10092000000000000000001C00003C0000F000037C
:10093000C0000F00003C0000F000003C00000F0071
:100940000003C00000F000003C00001C000000009C
:100950000000000000000000000000000000000097
:100960000000000000000000000000000000000087
:10097000000000000000007FFC007FFC0000000081
:100980000000007FFC007FFC000000000000000071
:100990000000000000000000000000000000000057
:1009A0000000000000000000000000000000000047
:1009B0000000000000007000007800001E0000072A
:1009C000800001E000007800001E0000780001E0D7
:1009D000000780001E00007800007000000000008A
:1009E0000000000000000000000000000000000007
:1009F000000000000000000000000007C0000FE041
:100A00000018700018300018300000700000E0007E
:100A100003C0000380000300000000000000000786
:100A200000000700000000000000000000000000BF
:100A300000000000000000000000000000000000B6
:100A400003E00007F0000E38000C180018780018BA
:100A5000F80019D80019980019980019980018F88A
:100A6000001878001800000C00000E180007F800AD
:100A700003E0000000000000000000000000000093
:100A800000000000000000000000001F80001FC0E8
:100A90000001C00003600003600006300006300063
:100AA0000C30000FF8001FF800180C00300C00FC90
:100AB0007F00FC7F0000000000000000000000003C
:100AC0000000000000000000000000000000000026
:100AD0000000007FE0007FF00018380018180018B0
:100AE00018001838001FF0001FF800181C00180C20
:100AF00000180C00180C007FF8007FF000000000C8
:100B000000000000000000000000000000000000E5
:100B1000000000000000000000000003EC000FFCDB
:100B2000001C1C00180C00300C00300000300000CD
:100B3000300000300000300000180C001C1C000FBA
:100B4000F80003F0000000000000000000000000BA
:100B50000000000000000000000000000000000095
:100B60000000007FC0007FF000183800181800183F
:100B70000C00180C00180C00180C00180C00180CB5
:100B8000001818001838007FF0007FE00000000017
:100B90000000000000000000000000000000000055
:100BA00000000000000000000000007FF8007FF857
:100BB000001818001818001998001980001F8000EC
:100BC0001F80001980001998001818001818007F5D
:100BD000F8007FF8000000000000000000000000A6
:100BE0000000000000000000000000000000000005
:100BF0000000003FFC003FFC000C0C000C0C000C43
:100C0000CC000CC0000FC0000FC0000CC0000CC016
:100C1000000C00000C00003FC0003FC000000000BE
:100C200000000000000000000000000000000000C4
:100C3000000000000000000000000003EC000FFCBA
:100C4000001C1C00180C00300C00300000300000AC
:100C500030FE0030FE00300C00380C001C1C000F71
:100C6000FC0003F000000000000000000000000095
:100C70000000000000000000000000000000000074
:100C80000000007E7E007E7E0018180018180018F4
:100C900018001818001FF8001FF80018180018187E
:100CA000001818001818007E7E007E7E00000000EC
:100CB0000000000000000000000000000000000034
:100CC00000000000000000000000001FF8001FF8F6
:100CD000000180000180000180000180000180008F
:100CE0000180000180000180000180000180001F60
:100CF000F8001FF8000000000000000000000000E5
:100D000000000000000000000000000000000000E3
:100D100000000007FE0007FE000030000030000069
:100D20003000003000003000303000303000303013
:100D3000003030003060003FE0000F800000000015
:100D400000000000000000000000000000000000A3
:100D500000000000000000000000007F3E007F3E19
:100D60000018300018600018C0001980001B8000B7
:100D70001FC0001CE0001870001830001838007FF9
:100D80001F007F1F000000000000000000000000A6
:100D90000000000000000000000000000000000053
:100DA0000000007F80007F80000C00000C00000C21
:100DB00000000C00000C00000C00000C0C000C0CDF
:100DC000000C0C000C0C007FFC007FFC00000000FD
:100DD0000000000000000000000000000000000013
:100DE0000000000000000000000000F00F00F81FED
:100DF00000381C003C3C003C3C00366C00366C006B
:100E000033CC0033CC00318C00300C00300C00FEB1
:100E10007F00FE7F000000000000000000000000D6
:100E200000000000000000000000000000000000C2
:100E300000000078FE0078FE001C18001E18001F3D
:100E400018001B18001B980019D80018D80018F8B3
:100E5000001878001838007F18007F180000000084
:100E60000000000000000000000000000000000082
:100E7000000000000000000000000003C0000FF0B0
:100E8000001C3800181800381C00300C00300C0012
:100E9000300C00300C00381C001818001C38000FF3
:100EA000F00003C00000000000000000000000008F
:100EB0000000000000000000000000000000000032
:100EC0000000003FF0003FF8000C1C000C0C000C70
:100ED0000C000C0C000C18000FF8000FE0000C00C8
:100EE000000C00000C00003FC0003FC000000000EC
:100EF00000000000000000000000000000000000F2
:100F0000000000000000000000000003C0000FF01F
:100F1000001C3800181800381C00300C00300C0081
:100F2000300C00300C00381C001818001C38000F62
:100F3000F00007C00007CC000FFC000C38000000D8
:100F400000000000000000000000000000000000A1
:100F50000000007FE0007FF000183800181800182B
:100F600018001838001FF0001FC00018E0001870AB
:100F7000001830001838007F1E007F0E00000000AF
:100F80000000000000000000000000000000000061
:100F9000000000000000000000000007D8000FF86B
:100FA000001C38001818001818001E00000FC000A0
:100FB00003F0000078001818001818001C38001FF3
:100FC000F0001BE000000000000000000000000036
:100FD0000000000000000000000000000000000011
:100FE0000000003FFC003FFC00318C00318C0031E0
:100FF0008C00318C000180000180000180000180A4
:10100000000180000180000FF0000FF000000000E0
:1010100000000000000000000000000000000000D0
:1010200000000000000000000000007E7E007E7EC8
:1010300000181800181800181800181800181800C0
:101040001818001818001818001818000C30000F95
:10105000F00003C0000000000000000000000000DD
:101060000000000000000000000000000000000080
:101070000000007F7F007F7F00180C000C18000C20
:1010800018000C18000630000630000360000360F2
:101090000003600001C00001C000008000000000EB
:1010A0000000000000000000000000000000000040
:1010B0000000000000000000000000FE3F80FE3F36
:1010C0008030060030060030860019CC0019CC00B4
:1010D0001B6C001B6C001E7C000E38000E38000CD0
:1010E00018000C18000000000000000000000000C4
:1010F00000000000000000000000000000000000F0
:101100000000007E7E007E7E001818000C30000675
:10111000600003C00001800001800003C000066081
:10112000000C30001818007E7E007E7E000000005B
:1011300000000000000000000000000000000000AF
:1011400000000000000000000000007C7E007C7EAB
:10115000001818000C300006600006600003C00094
:101160000180000180000180000180000180000FEB
:10117000F0000FF000000000000000000000000080
:10118000000000000000000000000000000000005F
:101190000000001FF8001FF8001818001830001891
:1011A000600018C0000180000300000618000C1841
:1011B000001818003018003FF8003FF80000000049
:1011C000000000000000000000000000000000001F
:1011D000000000000000000001F00001F0000180AC
:1011E000000180000180000180000180000180007A
:1011F0000180000180000180000180000180000169
:10120000800001800001800001F00001F00000007A
:10121000000000000000000000001800001800009E
:101220001C00000C00000E00000600000600000379
:10123000000003000001800001800000C00000C029
:101240000000600000600000700000300000380006
:10125000001800001800000000000000000000005E
:1012600000000000000000000F80000F80000180DF
:1012700000018000018000018000018000018000E9
:1012800001800001800001800001800001800001D8
:1012900080000180000180000F80000F80000000AE
:1012A00000000000000000000000000000008000BE
:1012B00001C00003E0000770000630000C180018A1
:1012C0000C001004000000000000000000000000FE
:1012D000000000000000000000000000000000000E
:1012E00000000000000000000000000000000000FE
:1012F00000000000000000000000000000000000EE
:1013000000000000000000000000000000000000DD
:1013100000000000000000000000000000000000CD
:1013200000000000000000000000000000000000BD
:1013300000000000FFFF00FFFF00000000030000AE
:1013400003800000E00000600000000000000000DA
:10135000000000000000000000000000000000008D
:10136000000000000000000000000000000000007D
:10137000000000000000000000000000000000006D
:10138000000000000000000000000000000000005D
:10139000000000000FC0001FE0000030000030001F
:1013A00007F0001FF0003830003030003070001FB0
:1013B000FC000FBC00000000000000000000000066
:1013C000000000000000000000000000000000001D
:1013D0007800007800001800001800001BE0001FD3
:1013E000F8001C1800180C00180C00180C00180C41
:1013F00000180C001C18007FF8007BE000000000C3
:1014000000000000000000000000000000000000DC
:1014100000000000000000000000000000000000CC
:101420000000000003EC000FFC001C1C00380C0046
:10143000300C00300000300000380C001C1C000F85
:10144000F80003F0000000000000000000000000B1
:10145000000000000000000000000000000000008C
:1014600000780000780000180000180007D8001F5E
:10147000F800183800301800301800301800301804
:10148000003018001838001FFE0007DE00000000C2
:10149000000000000000000000000000000000004C
:1014A000000000000000000000000000000000003C
:1014B0000000000007E0001FF800181800300C00C2
:1014C0003FFC003FFC00300000300000180C001F03
:1014D000FC0007F000000000000000000000000019
:1014E00000000000000000000000000000000000FC
:1014F00001FC0003FC000600000600003FF8003F6E
:10150000F8000600000600000600000600000600C5
:10151000000600000600003FF0003FF00000000061
:1015200000000000000000000000000000000000BB
:1015300000000000000000000000000000000000AB
:101540000000000007DE001FFE0018380030180001
:101550003018003018003018003018001838001FFC
:10156000F80007D8000018000018000038000FF03D
:10157000000FC0000000000000000000000000009C
:101580007800007800001800001800001BE0001F21
:10159000F0001C3800181800181800181800181847
:1015A000001818001818007E7E007E7E00000000E3
:1015B000000000000000000000000000000000002B
:1015C0000000000000000000018000018000000019
:1015D000000000001F80001F8000018000018000CB
:1015E0000180000180000180000180000180003F37
:1015F000FC003FFC000000000000000000000000B4
:1016000000000000000000000000000000000000DA
:1016100000C00000C0000000000000001FF0001F1C
:10162000F0000030000030000030000030000030DA
:1016300000003000003000003000003000003000BA
:101640000030000070001FE0001F8000000000005C
:1016500000000000000000003C00003C00000C0006
:10166000000C00000CF8000CF8000CC0000D80000D
:101670000F80000F00000F80000DC0000CE0003C48
:101680007C003C7C00000000000000000000000026
:10169000000000000000000000000000000000004A
:1016A0001F80001F80000180000180000180000178
:1016B0008000018000018000018000018000018025
:1016C000000180000180003FFC003FFC00000000A2
:1016D000000000000000000000000000000000000A
:1016E00000000000000000000000000000000000FA
:1016F00000000000F77800FFFC0039CC00318C00BE
:10170000318C00318C00318C00318C00318C00FD2B
:10171000EF00FDEF000000000000000000000000EE
:1017200000000000000000000000000000000000B9
:101730000000000000000000000000007BE0007FCF
:10174000F0001C3800181800181800181800181895
:10175000001818001818007E7E007E7E0000000031
:101760000000000000000000000000000000000079
:101770000000000000000000000000000000000069
:101780000000000003C0000FF0001C3800381C00EF
:10179000300C00300C00300C00381C001C38000FDE
:1017A000F00003C000000000000000000000000086
:1017B0000000000000000000000000000000000029
:1017C0000000000000000000000000007BE0007F3F
:1017D000F8001C1800180C00180C00180C00180C4D
:1017E00000180C001C18001FF8001BE00018000077
:1017F0001800001800007F00007F000000000000BB
:1018000000000000000000000000000000000000D8
:101810000000000007DE001FFE001838003018002E
:101820003018003018003018003018001838001F29
:10183000F80007D80000180000180000180000FE8B
:101840000000FE000000000000000000000000009A
:101850000000000000000000000000003E78003E94
:10186000FC0007CC00070000060000060000060090
:10187000000600000600003FF0003FF000000000FE
:101880000000000000000000000000000000000058
:101890000000000000000000000000000000000048
:1018A0000000000007F8000FF800181800181800D2
:1018B0001F80000FF00000F8001818001838001FF3
:1018C000F0001FE000000000000000000000000029
:1018D0000000000000000000000000000000000008
:1018E0000C00000C00000C00000C00003FF0003F5A
:1018F000F0000C00000C00000C00000C00000C00BC
:10190000000C00000C1C0007FC0003F000000000AD
:1019100000000000000000000000000000000000C7
:1019200000000000000000000000000000000000B7
:101930000000000078780078780018180018180067
:101940001818001818001818001818001838000F78
:10195000FE0007DE000000000000000000000000A4
:101960000000000000000000000000000000000077
:101970000000000000000000000000007C3E007C31
:101980003E001818001818000C30000C30000660DB
:101990000006600007E00003C00003C00000000074
:1019A0000000000000000000000000000000000037
:1019B0000000000000000000000000000000000027
:1019C00000000000783C00783C003118003398009B
:1019D0003398001AB0001EF0001EF0001C60000CCE
:1019E00060000C600000000000000000000000002B
:1019F00000000000000000000000000000000000E7
:101A00000000000000000000000000003E7C003EDE
:101A10007C000C300006600003C00001800003C0A1
:101A2000000660000C30003E7C003E7C00000000A0
:101A300000000000000000000000000000000000A6
:101A40000000000000000000000000000000000096
:101A5000000000007E1F007E1F00180C000C180004
:101A60000C180006300006300003600003E000019F
:101A7000C00000C0000180000180000300003FC0E2
:101A8000003FC00000000000000000000000000057
:101A90000000000000000000000000001FF8001F10
:101AA000F80018300018600000C00001800003003A
:101AB000000618000C18001FF8001FF800000000B6
:101AC0000000000000000000000000000000000016
:101AD000000000000000000000E00001E0000180C4
:101AE0000001800001800001800001800001800071
:101AF00003800007000003800001800001800001D6
:101B0000800001800001800001E00000E000000092
:101B100000000000000000000000000000000000C5
:101B2000018000018000018000018000018000012F
:101B300080000180000180000180000180000180A0
:101B40000001800001800001800001800001800010
:101B50000180000180000000000000000000000083
:101B60000000000000000000070000078000018066
:101B700000018000018000018000018000018000E0
:101B800001C00000E00001C00001800001800001F0
:101B90008000018000018000078000070000000035
:101BA0000000000000000000000000000000000035
:101BB0000000000000000000000000000000000025
:101BC00000000E00001F18003BB80031F00000E0DC
:101BD0000000000000000000000000000000000005
:101BE00000000000000000000000000000000000F5
:101BF000000000000000240027002A002D00300013
:101C000000000000250028002B002E0031000000FD
:101C100000002300260029002C002F0004040404E7
:101C20000403040502020202040302020202060681
:101C30000606060604040202020404040802011057
:101C400040804010204080408008020401804020F5
:101C50001002011080102040402000000002000906
:101C60000F0000030401000C000000000000000051
:101C700000000000000000000000181A11241FBE20
:101C8000CFEFDAE0DEBFCDBF11E0A0E0B1E0E4E7E6
:101C9000F5E302C005900D92A235B107D9F725E012
:101CA000A2E5B1E001C01D92AE3DB207E1F71EE032
:101CB000CEE3DEE004C02197FE010E947F1ACD33FF
:101CC000D107C9F70E94D3170C94B81A0C940000DE
:101CD0004091570150915801209155013091560182
:101CE00042175307B4F49091E8009570E1F3909196
:101CF000E80092FD19C08093F10080915701909106
:101D0000580101968F739927892B19F48EEF8093D0
:101D1000E8008091570190915801019690935801E5
:101D20008093570181E0089580E00895DF92EF925B
:101D3000FF920F931F93CF93DF93D82E8A017B01DD
:101D4000E40EF51EEB01CE15DF0571F0D7FE03C0E2
:101D5000FE01849101C088810E94680E2196811144
:101D6000F2CF8FEF9FEF01C0C801DF91CF911F919C
:101D70000F91FF90EF90DF900895615030F0209127
:101D8000F100FC0120830196F8CF289884E6809327
:101D900066010895CF93DF931F92CDB7DEB76983B5
:101DA000DC01ED91FC910280F381E02D41E050E0F7
:101DB000BE016F5F7F4F09950F90DF91CF9108951E
:101DC00083E08093E9008091F200882319F08AE390
:101DD0008093E8000895FC018485958597FD0BC0EC
:101DE0009FB7F89482E08093E9008091F2009FBF52
:101DF00090E0019608959FB7F89482E08093E900FF
:101E00008091F2009FBF90E00895CF92DF92EF9211
:101E1000FF920F931F93CF93DF936C017A018B0195
:101E2000C0E0D0E0CE15DF0581F0D8016D918D01C5
:101E3000D601ED91FC910190F081E02DC60109954C
:101E4000892B11F02196EECF7E01C701DF91CF9152
:101E50001F910F91FF90EF90DF90CF90089508951C
:101E600080E090E008950F931F93CF93DF931F922C
:101E7000CDB7DEB782E0898342E450E06AEC70E0DF
:101E800080E80E94960E0E945C15DC0112960D916E
:101E90001C9113970115110589F0D801ED91FC9162
:101EA0000280F381E02DBE016F5F7F4FC80109956D
:101EB00097FD04C0F80100851185ECCF89810F9052
:101EC000DF91CF911F910F9108958F929F92AF92C2
:101ED000BF92CF92DF92EF92FF920F931F93CF9317
:101EE000DF936C017B018A0180910B01882309F447
:101EF0005CC080916701882309F457C080915B0121
:101F000080FF05C08091E00082608093E000E801DE
:101F1000B12C8AEFA82E93E0892E2AE3922E2097E7
:101F200011F4BB20D9F10E944B1581110AC0AA946B
:101F3000AA20D9F161E070E080E090E00E945216A2
:101F4000EECF282F30E0C217D3070CF48C2F9FB7A9
:101F5000F8948092E9002091E80025FF1DC0282F09
:101F600030E0C21BD30BF701815020F04191409328
:101F7000F100FACFE20EF31EBB2019F09092E800B8
:101F80000AC08091E80085FD07C09092E800BB245C
:101F9000B394209709F0B12C9FBFC1CF5D9884E620
:101FA00080935C011016110644F081E090E0F60188
:101FB0009383828380E090E001C0C801DF91CF91DC
:101FC0001F910F91FF90EF90DF90CF90BF90AF9057
:101FD0009F908F9008950E944B1590E008950F9365
:101FE0001F93CF93DF931F92CDB7DEB78C01FC0117
:101FF0008485958597FF0EC0CE0101960E941D1520
:10200000019719F4898190E002C08FEF9FEFF801EA
:1020100095878487F801848595850F90DF91CF910E
:102020001F910F910895CF93DF931F92CDB7DEB725
:10203000FC018485958597FD05C02FEF3FEF35871F
:1020400024870BC0CE0101960E941D15019719F43B
:10205000898190E002C08FEF9FEF0F90DF91CF91C9
:1020600008950E94B31A3FB7F8948091620190914D
:102070006301A0916401B091650126B5A89B05C0DC
:102080002F3F19F00196A11DB11D3FBFBA2FA92FF7
:10209000982F8827820F911DA11DB11DBC01CD0174
:1020A00042E0660F771F881F991F4A95D1F7089560
:1020B0001F920F920FB60F9211242F933F938F937D
:1020C0009F93AF93BF9380915E0190915F01A09128
:1020D0006001B091610130915D0123E0230F2D3744
:1020E00020F40196A11DB11D05C026E8230F02961C
:1020F000A11DB11D20935D0180935E0190935F014E
:10210000A0936001B093610180916201909163019D
:10211000A0916401B09165010196A11DB11D80934C
:10212000620190936301A0936401B0936501BF9134
:10213000AF919F918F913F912F910F900FBE0F9074
:102140001F9018951F920F920FB60F9211248F9324
:102150009F938091E1009091E100937F9093E10043
:1021600083FF0FC01092E90091E09093EB00109272
:10217000EC0092E39093ED001092670198E0909349
:10218000F00082FF20C093E09093E9009091F2006C
:10219000992319F09AE39093E80090915C019923B8
:1021A00039F090915C01915090935C01992389F1F1
:1021B00090916601992339F0909166019150909326
:1021C0006601992341F184FF10C08091E2008E7E68
:1021D00081608093E2008091E1008F7E8093E10036
:1021E00080915B018E7E806111C080FF16C080915E
:1021F000E2008E7E80618093E2008091E1008E7E1D
:102200008093E10080915B018E7E816080935B0111
:1022100004C05D9ACDCF289AD6CF9F918F910F9011
:102220000FBE0F901F9018951F920F920FB60F922E
:102230001124CF92DF92EF92FF920F931F932F936F
:102240003F934F935F936F937F938F939F93AF933E
:10225000BF93EF93FF93CF93DF93CDB7DEB76C9728
:10226000DEBFCDBF1092E9008091E80083FFFBC183
:1022700068E0CE0145960E94BD0E82EF8093E80093
:102280008D8987FF05C09091E80090FFFCCF03C0C7
:102290009EEF9093E800982F907609F0C6C09E8933
:1022A0004F89588D2F89F88C91110CC0803829F4F2
:1022B00080915A018093F10002C01092F1001092B7
:1022C000F10045C1913051F4811141C141305105B6
:1022D00009F03DC180915A018D7F0BC0933061F4AC
:1022E000811135C14130510509F031C180915A0148
:1022F000826080935A012BC1953049F48091E800A7
:1023000080FFFCCF822F80688093E30020C196304D
:1023100009F05EC00B8D1C8D22E01092E900109236
:10232000580110925701F21232C0109256011092C9
:1023300055010E94330F99E0BE016F5F7F4FDB01B3
:10234000E92F1D92EA95E9F79983FA8291E09E833D
:1023500090EA98879AEF9987209157013091580118
:10236000275F3F4F3C832B838D831092E9001092AF
:10237000580110925701109356010093550149E0FE
:1023800050E080E00E94960E0E94330FE0C0109350
:102390005601009355010E945C15DC0112960D91C7
:1023A0001C9113970115110509F4BBC0D801ED91DB
:1023B000FC910480F581E02DBE016B5E7F4FC8016A
:1023C0000995009709F0C7C0F80100851185EACF8B
:1023D000973009F445C1983021F481E08093F100F1
:1023E000B6C0993009F0B3C0837009F039C1E1E398
:1023F000F1E081E031E096E32081211109C08EE710
:102400008093EA001092EA008F89809367019FC051
:102410008093E9003093EB0021912093EC0090939E
:10242000ED008F5F873041F7EACF8B8D9C8D109246
:10243000E900109258011092570190935601809331
:102440005501898D811153C08E899D89913A49F436
:10245000813209F005C147E050E064E071E080E0BE
:10246000BBC0913209F0FCC0833269F48F89988D2A
:10247000A0E0B0E08093000190930101A0930201DD
:10248000B093030164C0803269F48091E80082FF58
:10249000FCCF67E084E091E00E94BD0E8BEF80935B
:1024A000E80055C0823209F052C08F8980930B0139
:1024B000EEEFFFE7859194918B3F9C4D19F0E0E0A2
:1024C000F8E002C0EEEFFAE080910401909105017E
:1024D000A0910601B0910701803B9440A105B10590
:1024E00009F09EC080910B0180FF79C099C00E94C5
:1024F0005C15FC01028113810115110509F4B0C0BE
:10250000D801ED91FC910190F081E02DBE016B5E50
:102510007F4FC801099581111AC0F8010085118506
:10252000EBCFF1E0FF1609F44EC0F3E0FF1298C0C4
:102530008F89882309F44AC0823089F440E86BE02F
:102540008EE291E00E949E17882309F489C08EEFE5
:102550008093E80088C018161906CCF381C081303A
:1025600029F440E86BE082E291E0ECCF833009F09F
:1025700077C00E945C15DC011296ED90FC901397D9
:102580008E010F5F1F4F6801E114F10479F0D7014C
:10259000ED91FC910680F781E02DB801C701099506
:1025A000080F111DF701E084F184EECFD8011C92D1
:1025B000F60101900020E9F73197BF016C197D0900
:1025C00040E0C601BFCF60E171E002C06CE071E0A5
:1025D000FB01449150E080E80E94960EB8CFEE3F98
:1025E0002AE0F20751F0808191818737A7E79A07A7
:1025F00021F09093FF0A8093FE0A87E797E7918383
:10260000808380916000809359019BE088E10FB640
:10261000F894A895809360000FBE9093600097CFC8
:10262000808191818737974709F091CFA895809154
:102630006000886180936000809159018093600000
:10264000EE3FBAE0FB0739F08091FE0A9091FF0A55
:10265000918380837CCF1092FF0A1092FE0A77CF7D
:1026600081E28093EB006C960FB6F894DEBF0FBE4C
:10267000CDBFDF91CF91FF91EF91BF91AF919F912E
:102680008F917F916F915F914F913F912F911F910A
:102690000F91FF90EF90DF90CF900F900FBE0F90B3
:1026A0001F90189597FD58C0E091CC01F091CD0195
:1026B0008E179F070CF050C077FD4EC02091CE01C1
:1026C0003091CF01621773070CF046C0E69F90016E
:1026D000E79F300DF69F300D1124E091CA01F09173
:1026E000CB01280F391F452BD9F037FF02C0295FD6
:1026F0003F4F53E0359527955A95E1F7E20FF31FC9
:1027000068E070E00E946B1A20E830E0A90102C086
:10271000559547958A95E2F7CA019081892B1BC090
:1027200037FF02C0295F3F4F43E0359527954A9513
:10273000E1F7E20FF31F68E070E00E946B1A20E8F7
:1027400030E0A90102C0559547958A95E2F7CA0184
:102750008095908189238083089590E0FC013197D2
:10276000EF30F105B0F5EA5AFF4F0C947F1A8091D3
:1027700080008F7703C0809180008F7D80938000E0
:10278000089580918000877FF9CF84B58F7702C04C
:1027900084B58F7D84BD0895809190008F7707C0A8
:1027A000809190008F7D03C080919000877F8093FF
:1027B000900008958091C0008F7703C08091C00081
:1027C0008F7D8093C00008958091C200877F8093A1
:1027D000C20008954F925F926F927F928F929F9264
:1027E000AF92BF92CF92DF92EF92FF920F931F931F
:1027F000CF93DF934C01A12CB12C20E8422E512C19
:10280000F40181914F01882309F4E0C020910E0169
:1028100030910F01B9016770772741E050E0672BD5
:1028200011F440E050E093E0369527959A95E1F752
:10283000240F351F6091100170911101269FA00196
:10284000279F500D369F500D1124082E000C990B18
:102850008097489F9001499F300D589F300D11245B
:10286000E0900C01F0900D01E20EF31E00E010E08C
:1028700080911001909111010817190708F09FC06D
:10288000E501C12CD12C80910E0190910F01C81649
:10289000D90608F08AC0F70194913601F7E06F225B
:1028A00077249201062C02C0359527950A94E2F709
:1028B000892F90E082239323892B09F46AC08091A9
:1028C000D0019091D1010097B9F4D7FD62C08091F9
:1028D000CC019091CD01C817D9070CF05AC0809156
:1028E000CE019091CF01081719070CF052C041E0BA
:1028F00050E0B801CE014BC081309105B9F4D7FD4D
:1029000048C08091CE019091CF01C817D9070CF033
:1029100040C08091CC019091CD0108171907CCF5EA
:1029200041E050E0BE01801B910B31C08230910527
:10293000B9F4D7FD2EC08091CC019091CD01C8177C
:10294000D9073CF56091CE017091CF0106171707AA
:1029500004F5601B710B41E050E08C1B9D0B17C010
:102960000397B9F4D7FD15C06091CE017091CF01E6
:10297000C617D70774F48091CC019091CD01081748
:1029800019073CF46C1B7D0B41E050E0C8010E942C
:10299000521387E06816710419F4EFEFEE1AFE0A7D
:1029A000FFEFCF1ADF0A21966ECF87709927892B08
:1029B00019F08FEFE81AF80A0F5F1F4F59CF809177
:1029C0000E0190910F01A80EB91E1ACFDF91CF9181
:1029D0001F910F91FF90EF90DF90CF90BF90AF903D
:1029E0009F908F907F906F905F904F9008950F937E
:1029F0001F93CF93DF93C0E0D0E08091CC01909102
:102A0000CD01C817D907A4F400E010E08091CE01F1
:102A10009091CF01081719074CF440E050E0B8013D
:102A2000CE010E9452130F5F1F4FF0CF2196E5CFCA
:102A3000DF91CF911F910F9108952091670121118E
:102A400003C08FEF9FEF08955FB7F89422E02093C3
:102A5000E9002091F20030E01216130614F421E090
:102A600030E0422FFC0184E6415038F028988093F2
:102A700066019091F1009193F7CF2115310521F076
:102A80008091F200882319F05FBFC90108958BE699
:102A90008093E800F9CF2FB7F89483E08093E900A2
:102AA0009091E800892F807295FF04C09091F20008
:102AB00080E4891B2FBF08958091D60181110DC03C
:102AC00082E08093D20184E08093D3011092D501FB
:102AD0001092D40181E08093D60182ED91E00895B7
:102AE000CF93DF93282F30E0F901E65AF34E84911B
:102AF000F901E55CF34ED491F901E45EF34EC49123
:102B0000CC2391F081110E94AD13EC2FF0E0EE0F79
:102B1000FF1FE25FF34EA591B491EC91ED2381E0AC
:102B200090E021F480E002C080E090E0DF91CF915E
:102B300008951F93CF93DF93282F30E0F901E65AD1
:102B4000F34E8491F901E55CF34ED491F901E45E12
:102B5000F34EC491CC23C1F0162F81110E94AD1306
:102B6000EC2FF0E0EE0FFF1FE050F44EA591B49172
:102B70009FB7F894111104C08C91D095D82302C04E
:102B8000EC91DE2BDC939FBFDF91CF911F910895D5
:102B9000CF93C82F60E08AE00E949915CEBD000057
:102BA0000DB407FEFDCF8EB561E08AE0CF910C94A5
:102BB0009915CF93C82F60E08091C2010E949915AA
:102BC0008C2FCF910C94C815CF93C82F61E08091C2
:102BD000C2010E9499158C2FCF910C94C8150F93A8
:102BE0001F93CF93DF93EC018B0184E40E94D915EE
:102BF00080E00E94E415CE0123E0959587952A9503
:102C0000E1F70E94E41585E40E94D91580E00E9456
:102C1000E41580E00E94E415802F0E94E415812FC6
:102C2000DF91CF911F910F910C94E415CF93DF9317
:102C300090E0FC01E55CF34E2491FC01E45EF34E70
:102C40008491882361F190E0880F991FFC01EE5078
:102C5000F44EC591D491FC01E050F44EA591B4918D
:102C6000611109C09FB7F8948881209582238883D9
:102C7000EC912E230BC0623061F49FB7F8948881E9
:102C8000322F309583238883EC912E2B2C939FBF7A
:102C900006C08FB7F894E8812E2B28838FBFDF9171
:102CA000CF9108958F929F92AF92BF92CF92DF9271
:102CB000EF92FF926B017C010E9433104B015C018B
:102CC000C114D104E104F104F1F00E943310DC01DD
:102CD000CB0188199909AA09BB09883E9340A1052F
:102CE000B10570F321E0C21AD108E108F10888EEBD
:102CF000880E83E0981EA11CB11CC114D104E1040C
:102D0000F10419F7DDCFFF90EF90DF90CF90BF90E7
:102D1000AF909F908F9008958091C6010E9470158A
:102D2000019739F464E670E080E090E00E9452166A
:102D3000F3CF089582E20E94D91584EC0E94E41535
:102D400080E20E94D9158FEF0E94D9150C948C1641
:102D50008EE40E94D91580E00E94E4158FE40E9461
:102D6000D91580E00E94E41580E00E94E4150C94DF
:102D70008C168F929F92AF92BF92CF92DF92EF927A
:102D8000FF926091BC017091BD0161507109809109
:102D9000B8019091B90101970E94EF150E94A81601
:102DA00084E20E94D915C12CD12C7601460157012D
:102DB0008FEF881A980AA80AB80A8091B8019091F2
:102DC000B901A091BA01B091BB019C01AD0183E0B2
:102DD00056954795379527958A95D1F76091BC010F
:102DE0007091BD018091BE019091BF010E945B1A5C
:102DF000C616D706E806F90630F48FEF0E94E415F0
:102E000075016401D3CFFF90EF90DF90CF90BF901A
:102E1000AF909F908F9008956F927F928F929F9224
:102E2000AF92BF92CF92DF92EF92FF920F931F93D8
:102E3000CF93DF93009709F472C077FD70C057FD00
:102E40006EC0EB01C87FDD270091B8011091B90178
:102E50002091BA013091BB016E010D2E000CEE08DD
:102E6000FF08C016D106E206F30628F0380161E03B
:102E7000661A710804C03E01E1E06E1A7108009103
:102E8000BC011091BD012091BE013091BF016A01CA
:102E9000052E000CEE08FF08C016D106E206F30668
:102EA00028F07801F1E0EF1AF10804C07A0121E07E
:102EB000E21AF1088C01B701C3010E94EF150E94CC
:102EC000A81684E20E94D9154FEF641A740A83E0B1
:102ED000759467948A95E1F793E0D595C7959A958F
:102EE000E1F7CC24DD24C01AD10AA12CB12CEA14BC
:102EF000FB04ACF04801C4018C0D9D1D861597059F
:102F000034F4F40181914F010E94E415F4CFFFEFF6
:102F1000AF1ABF0A0C0F1D1FCC1ADD0AE8CFDF91D4
:102F2000CF911F910F91FF90EF90DF90CF90BF90C6
:102F3000AF909F908F907F906F900895DF92EF9267
:102F4000FF920F931F93CF93DF93D82EF92EE42E89
:102F5000062F10E0C8010196880F0E94680E83E0DA
:102F60000E94680ECD2DDF2D0C0F1D1FC017D1073D
:102F700089F0E7FE03C0FE01849101C088810E94B0
:102F8000680EF82E80E00E94680E8F212196811134
:102F9000EDCF01C081E0DF91CF911F910F91FF90A4
:102FA000EF90DF900895789484B5826084BD84B5F5
:102FB000816084BD85B5826085BD85B5816085BD34
:102FC00080916E00816080936E00109281008091EC
:102FD0008100826080938100809181008160809374
:102FE00081008091800081608093800080919100B9
:102FF0008260809391008091910081608093910024
:10300000809190008160809390008091C1008460E5
:103010008093C1008091C10082608093C100809143
:10302000C10081608093C1008091C3008160809362
:10303000C3008091C00082608093C0008091C20074
:1030400081608093C20080917A00846080937A00CE
:1030500080917A00826080937A0080917A0081600A
:1030600080937A0080917A00806880937A00109231
:10307000670110925A0110925B018091D700816024
:103080008093D70080EA8093D80089B5806189BD9C
:1030900089B5826089BD09B400FEFDCF61E070E0B2
:1030A00080E090E00E9452168091D8008F7C806171
:1030B0008093D8008091E000807F8093E000809131
:1030C000E1008E7E8093E1008DE08093E200559ACE
:1030D000209A8FEF9FEF909375018093740160E0C9
:1030E00082E00E94161660E083E00E94161660E0FF
:1030F00085E00E94161660E086E00E94161661E0E8
:103100008DE00E94161661E08AE00E94161661E0CA
:1031100088E00E94161661E089E00E94161660E0C1
:1031200087E00E94161681E58CBD81E08DBDCFB78A
:10313000F89480915201811127C0EDE2FCE1849165
:10314000ECE4FCE19491E82FF0E0EE0FFF1FEE506D
:10315000F44EA591B491EC91E92321F461E081E171
:103160000E94991561E081E10E9416168CB580617C
:103170008CBD8CB580648CBD61E08FE00E9416161A
:1031800061E080E10E941616809152018F5F80936A
:103190005201CFBF82E191E09093C9018093C801B1
:1031A00060E08091C0010E94991568EC70E080E0B9
:1031B00090E00E94521661E08091C0010E94991532
:1031C00068EC70E080E090E00E94521681E00E947E
:1031D000D91587E20E94E41581E00E94E41580E0A1
:1031E0000E94E4158CE00E94D91587ED0E94E41539
:1031F00086ED0E94E4158DE90E94E4158CE20E94A0
:10320000D91588EA0E94E4158AE30E94D9158AE15B
:103210000E94E4158BE30E94D91588E00E94E41512
:1032200081E10E94D91583E00E94E41582E30E94A7
:10323000D915C0E0D0E0E091C801F091C901EC0FD0
:10324000FD1F80810E94E4152196CE31D10599F7AA
:103250000E94B9160E949A160E94B9160E949A16E8
:103260001092D1011092D00180E190E09093CD01B5
:103270008093CC0185E290E09093CF018093CE01C2
:10328000C0E0D0E082E00E947015182F117080918C
:10329000540110FB80F980935401909153019827B9
:1032A00090FF24C080FF1CC00E94F71489E491E0C5
:1032B0000E94EA134091CE015091CF016091CC0160
:1032C0007091CD018091CA019091CB010E940C17A1
:1032D0000E949A1662E370E080E090E00E9452162D
:1032E0008091530110FB80F98093530183E00E9489
:1032F0007015182F11708091540110FB81F9809383
:10330000540190915301982791FF24C081FF1CC064
:103310000E94F7148BE491E00E94EA134091CE01E1
:103320005091CF016091CC017091CD018091CA0183
:103330009091CB010E940C170E949A1662E370E0F4
:1033400080E090E00E9452168091530110FB81F9B9
:103350008093530185E00E947015182F11708091A1
:10336000540110FB82F980935401909153019827E6
:1033700092FF24C082FF1CC00E94F7148DE491E0EC
:103380000E94EA134091CE015091CF016091CC018F
:103390007091CD018091CA019091CB010E940C17D0
:1033A0000E949A1662E370E080E090E00E9452165C
:1033B0008091530110FB82F98093530186E00E94B3
:1033C0007015182F11708091540110FB83F98093B0
:1033D000540190915301982793FF24C083FF1CC090
:1033E0000E94F7148FE491E00E94EA134091CE010D
:1033F0005091CF016091CC017091CD018091CA01B3
:103400009091CB010E940C170E949A1662E370E023
:1034100080E090E00E9452168091530110FB83F9E6
:1034200080935301209709F42DCF0E9400002ACFEA
:10343000E8E6F1E01382128288EE93E0A0E0B0E0CB
:1034400084839583A683B7838BE391E09183808304
:103450008FEF9FEF95878487EAECF1E01782168261
:103460008EED91E091838083138212821582148203
:10347000E8EBF1E088E090E09187808789E090E0D8
:10348000938782878AE090E09587848787E090E041
:103490009787868780E890E0A0E0B0E08083918302
:1034A000A283B38388E291E0A0E0B0E084839583B7
:1034B000A683B7830895DB018F939F930E94851A9B
:1034C000BF91AF91A29F800D911DA39F900DB29FC0
:1034D000900D1124089597FB072E16F4009407D041
:1034E00077FD09D00E94901A07FC05D03EF4909514
:1034F00081959F4F0895709561957F4F0895EE0FC8
:10350000FF1F0590F491E02D09940E94A41AA59F35
:10351000900DB49F900DA49F800D911D11240895CE
:10352000AA1BBB1B51E107C0AA1FBB1FA617B707E9
:1035300010F0A61BB70B881F991F5A95A9F7809505
:103540009095BC01CD010895A29FB001B39FC00129
:10355000A39F700D811D1124911DB29F700D811DBF
:103560001124911D089581E090E0F8940C94B81A0C
:04357000F894FFCFFD
:10357400FFFFFFFF00E10000000000003A0111001E
:10358400180002020111121222226669695958991F
:10359400998800000000F8B4135135515119010005
:1035A40000C1808100000000000000CA0E650FEB1E
:1035B4000FE00EEB0E1310EF0F6100620063006466
:0235C400000005
:00000001FF
